:020000040000FA
:10000000A8270020F90200000103000003030000FC
:1000100005030000070300000903000000000000C2
:100020000000000000000000000000000B030000C2
:100030000D030000000000000F030000110300008A
:100040001303000013030000210F0000130300003E
:10005000130300001303000019080000950A0000B4
:10006000F90E00000D0F0000130300001303000041
:100070001303000013030000130300001303000028
:100080001303000013030000130300001303000018
:100090001303000013030000130300001303000008
:1000A00013030000130300001303000013030000F8
:1000B0001303000013030000000000000000000014
:1000C00013030000130300001303000013030000D8
:1000D00013030000130300001303000000000000DE
:1000E0000000000000000000000000000000000010
:1000F0000000000000000000000000000000000000
:1001000000000000000000000000000000000000EF
:1001100000000000000000000000000000000000DF
:1001200000000000000000000000000000000000CF
:1001300000000000000000000000000000000000BF
:1001400000000000000000000000000000000000AF
:10015000000000000000000000000000000000009F
:10016000000000000000000000000000000000008F
:10017000000000000000000000000000000000007F
:10018000000000000000000000000000000000006F
:10019000000000000000000000000000000000005F
:1001A000000000000000000000000000000000004F
:1001B000000000000000000000000000000000003F
:1001C000000000000000000000000000000000002F
:1001D000000000000000000000000000000000001F
:1001E000000000000000000000000000000000000F
:1001F00000000000000000000000000000000000FF
:10020000DFF80CD000F0F6FA004800471D19000096
:10021000A827002030B4044654E8000F0D4644E8F7
:100220000053002BF8D1156030BC704730B4044641
:1002300054E8000F40EA010544E80053002BF7D1D1
:10024000156030BC704730B4044654E8000F00EA33
:10025000010544E80053002BF7D1156030BC70470E
:1002600030B4044654E8000F80EA010544E8005326
:10027000002BF7D1156030BC704730B4044654E809
:10028000000F00EB010544E80053002BF7D1156087
:1002900030BC704730B4044654E8000FA0EB0105B1
:1002A00044E80053002BF7D1156030BC704770B4A0
:1002B00004464FF0000054E8006F0D68AE4207BFDF
:1002C00044E80023012044E800630E60002B1CBFBB
:1002D0000020F0E770BC704730B4044654E8000FCB
:1002E00088422CBF451A054644E80053002BF5D13F
:1002F000156030BC7047000006488047064800473C
:10030000FEE7FEE7FEE7FEE7FEE7FEE7FEE7FEE7C5
:10031000FEE7FEE7DD0B000001020000202A04DBFF
:10032000203A21FA02F00021704721FA02F3D0406E
:10033000C2F12002914008431946704700487047B7
:10034000EC42000040EA01039B0703D009E008C922
:10035000121F08C0042AFAD203E011F8013B00F88A
:10036000013B521EF9D27047D2B201E000F8012BD6
:10037000491EFBD270470022F6E710B513460A4625
:1003800004461946FFF7F0FF204610BD421C10F846
:10039000011B0029FBD1801A70472DE9FE4F8046D2
:1003A00081EA0300C00F0C46009021F0004123F0C9
:1003B0000045B8EB0200A94105D2404621469046CF
:1003C0001C460B46024623F00040104347D0270D41
:1003D000C7F30A00C3F30A510290401A0190402863
:1003E0006BDAC3F3130040F4801B0098924620B1EF
:1003F0000023D2EB030A63EB0B0B01985946C0F1C3
:100400004002504600F041F906460D465046594616
:10041000019A00F049F910EB08006141002487EAD5
:10042000115284EAE7731A4340D0009A62B3019AEA
:10043000012A4FEA075215DC001B61EB02014FF065
:10044000004202EA0752CDE90042001C41F580114A
:1004500032462B4600F080F903B0BDE8F08F4046ED
:100460002146F9E7001B61EB0201001C41F58013F6
:1004700000185B412018A2F5001747EB030140EA82
:10048000D570B6196D4111E06D084FEA360645EAA0
:10049000C0754FEA0752001B61EB0201001C41F5D9
:1004A000801149084FEA30000019514132462B466D
:1004B00003B0BDE8F04F00F040B9009801224000C1
:1004C0000023D0EB020263EBE073009821464FEA71
:1004D000E074B8EB000061EB0401E9E783F000434E
:1004E0005BE781F0004158E72DE9FE4F81EA030404
:1004F00004F0004421F0004100944FF0000B23F081
:10050000004350EA01045ED052EA03045BD0C3F317
:100510000A54C1F30A552C44A4F2F3340194A0FB0D
:100520000254C1F3130141F48011C3F3130343F4E4
:10053000801301FB024400FB034E840A970A44EA3D
:10054000815447EA8357A4FB076802958D0A05FB8F
:1005500007854FEA932C04FB0C542705029D4FEAB4
:10056000065847EA1637B5EB08056EEB070C870E01
:10057000920E47EA811742EA8312A7FB0201B6EB0B
:100580000B0164EB00042B0D43EA0C335E1844EBC3
:100590001C50DA465146E7FB0201C5F313044FEA4B
:1005A0000B3343EA14534FEA0432019C43EA060337
:1005B000A4F10C040294009CCDE900B400F0CCF846
:1005C00003B0BDE8F08F00200146F9E70EB5C10F7A
:1005D00080EAE0700844CA07002140F233438DE806
:1005E0000E000A460B4600F0B7F803B000BD70B528
:1005F000C1F30A5201F000450024C1F3130140F297
:10060000FF3341F480119A4201DA002070BD40F2BC
:1006100033439A42A2F2334203DC5242FFF77EFE9A
:1006200000E090402C43F1D0404270BD00F0004209
:1006300030F000400AD0C10D01F56071C0F3160022
:1006400042EA0151C20840071143704700200146A9
:10065000704701F0004330B421F0004150EA01023C
:1006600006D00A0DA2F56072C1F31301002A02DC64
:1006700030BC00207047440F44EAC104C100E018B8
:1006800030BC00EBC25000F021B8202A04DB203A35
:1006900000FA02F1002070479140C2F1200320FAD5
:1006A00003F3194390407047202A06DBCB17203A0A
:1006B00041FA02F043EAE07306E041FA02F3D04067
:1006C000C2F1200291400843194670470029A8BF93
:1006D0007047401C490008BF20F00100704710B46B
:1006E000B0FA80FC00FA0CF050EA010404BF10BC20
:1006F000704749B1CCF1200421FA04F411FA0CF14D
:1007000018BF012121430843A3EB0C01CB1D4FEA85
:1007100000614FEA102042BF002010BC704700EB80
:10072000C35010440029A4BF10BC7047401C4900AE
:1007300008BF20F0010010BC704710B5141E73F103
:10074000000408DA401C41F1000192185B411A4391
:1007500001D120F0010010BD2DE9F04D92469B46DD
:1007600011B1B1FA81F202E0B0FA80F22032904683
:10077000FFF78BFF04460F4640EA0A0041EA0B01EF
:1007800053465A46084313D0114653EA010019D084
:10079000C8F140025046FFF7C1FD05460E465046DF
:1007A00059464246FFF771FF084305D0012004E097
:1007B00020463946BDE8F08D0020054346EAE07644
:1007C0002C4337430A986305E40AA0EB0800002293
:1007D000FD0A44EA47540A3002D500200146E9E701
:1007E000010510196941DDE9084500196941BDE8B5
:1007F000F04DA2E7064C074D06E0E06840F001032B
:1008000094E8070098471034AC42F6D3FFF7FCFC9D
:10081000AC430000CC4300002DE9F043002589B033
:10082000DFF84091A8464FF4807601242F460695C4
:10083000304601F019FD38B1D9F80403204203D045
:10084000304601F007FD2543361D64007F1CB6B21B
:10085000082FEDD34FF4BE74204601F005FD48B1DA
:10086000204601F0F7FC45F0004506AA01210020D2
:1008700001F0DCFC3C4E15F0FF0F15D001270024E1
:100880002F420DD009EB8401D1F81005D1F81015D5
:10089000C0F3042056F82420C1F3014102B190476F
:1008A0007F00641C082CEBD3002D2DDA4FF0FF30B5
:1008B000CDF808804AE004A9204601F0C1FA0028DA
:1008C00022D04FEA9518204600F0A0FE56F820509E
:1008D0001DB1B8F1030F03D006E0B8F1030F13D137
:1008E00002A9204601F0B4FA4FF0A04000EB8400CA
:1008F000D0F8000706A9C0F30149204601F0A0FA8C
:1009000028B1B9F1020F05D009B0BDE8F083B9F103
:10091000030FF9D1B8F1030F07D1B9F1020F1FD0BE
:100920000221204601F071FC012715B14146204605
:10093000A847002FE8D06A460121002001F076FC8C
:10094000069900988842DFD006900298049096F8A5
:100950004450002768B225F0C004401CABD1D3E757
:100960000321DEE7006000406801002000B540225E
:100970002DED028BA1B0B0EE408A1F496846FFF70B
:10098000E1FC1D494022403110A8FFF7DBFC0020AC
:100990004FEA0D0151F8202000EE102AB8EEC00AEF
:1009A000B4EEC80AF1EE10FA1FD301EB800151F842
:1009B000041C00EE901A521A00EE102AF8EEE00A1B
:1009C00010A9B8EEC00A01EB800038EE601AC1EE43
:1009D000000A90ED001A10ED010A31EE401A01EE06
:1009E000200A21B0BDEC028B00BD401C1028D1DBD9
:1009F0009FED020AF5E70000E8400000000000005B
:100A000000B540222DED028BA1B0B0EE408A1F4907
:100A10006846FFF797FC1D494022403110A8FFF7B8
:100A200091FC00204FEA0D0151F8202000EE102A21
:100A3000B8EEC00AB4EEC80AF1EE10FA1FD301EB0B
:100A4000800151F8041C00EE901A521A00EE102A90
:100A5000F8EEE00A10A9B8EEC00A01EB800038EE0B
:100A6000601AC1EE000A90ED001A10ED010A31EE95
:100A7000401A01EE200A21B0BDEC028B00BD401CE3
:100A80001028D1DB9FED020AF5E700006841000065
:100A9000000000002DE9FE434FF48278404601F04B
:100AA0007DFF4C4F00254C4C012600B3404601F021
:100AB0007DFF94F82E0010B194F82F10D1B18DF86D
:100AC0000050616801912189ADF80810E26832B1E7
:100AD000218B618362602181E56010B102E02574A1
:100AE00000E03E6021686846884784F82F5094F8FB
:100AF0002E0060B34FF48077384601F04FFF30B3DB
:100B0000384601F053FF628B94F82D108A420AD9BF
:100B1000A2EB010080B260832289A2EB0000626830
:100B200002EB400005E007D1E06828B184F82F60AF
:100B3000658301F021FF04E08A4202D184F82F602E
:100B40006583404601F032FF2248001D06604FF4E5
:100B50008877384601F022FF48B1384601F026FF79
:100B6000257402208DF800002168684688474FF4FC
:100B70008A77384601F012FF28B1384601F016FF97
:100B80002574BDE8FE834FF000484FF48C79676907
:100B90001DE000BFB7FA87F028FA00F109EB8005E5
:100BA0008F43284601F0FAFE88B1284601F0FEFE88
:100BB000A5F58C75E8088DF8040045F38000401C0D
:100BC0008DF800608DF80500216868468847002F81
:100BD000E0D1D6E700700040D0000020F0B5B54865
:100BE0000023021D0178101D01254FF080540629B5
:100BF0000BD11678360708D10678C6F30316032EF4
:100C000006D0042E04D0052E02D0062907D00EE00F
:100C1000B4F82463A84FC6F304263E6002E01678B9
:100C2000360704D10678C6F30316032E02D0062930
:100C300004D00FE0A24FA14E7E670EE01678360773
:100C400008D10678C6F30316032E06D0042E04D06E
:100C5000052E02D0062907D00EE0D4F84462994F41
:100C6000C6F342363E6002E01678360704D10678B5
:100C7000C6F30316032E02D0062906D011E0924EC9
:100C8000376827F0807737600EE01678360708D18E
:100C90000678C6F30316032E06D0042E04D0052EC4
:100CA00002D006290AD011E04FF08046C6F80C3178
:100CB000C6F81031834E361F336002E016783607CF
:100CC00004D10678C6F30316032E02D0062905D0F8
:100CD0000CE07C4F032664373E600AE01678360746
:100CE00004D10678C6F30316032E02D006290DD0D0
:100CF00014E0764F05263E60744E78363560734EAC
:100D0000083633603F263F1D3E6002E01678360706
:100D100004D10678C6F30316052E02D0062957D053
:100D200062E06B4E36686B4F3E60694E361D36682A
:100D30003F1D3E60664E083636683F1D3E60644E7D
:100D40000C3636683F1D3E60614E103636683F1DDA
:100D50003E605F4E143636683F1D3E605C4E18366E
:100D600036685C4F20373E60594E1C3636683F1D52
:100D70003E60574E203636683F1D3E60544E243646
:100D800036683F1D3E60524E283636683F1D3E6035
:100D90004F4E2C3636683F1D3E604D4E303636681D
:100DA0004C4F40373E604A4E343636683F1D3E60F9
:100DB000474E383636683F1D3E60454E3C363668F5
:100DC0003F1D3E60424E403636683F1D3E6002E0A9
:100DD0001678360708D10678C6F30316032E06D018
:100DE000042E04D0052E02D0062907D019E0D4F82D
:100DF0005812394A01F04F01116002E011780907D9
:100E00000FD10078C0F30310032803D0042801D0C9
:100E1000052806D131480168C90702D06FF00101E9
:100E20000160D4F83001062808D1D4F8340106282E
:100E300004D12B48016841F4806101602248743874
:100E4000016841F470010160BFF34F8FBFF36F8FF2
:100E50004FF01021D1F80002002803DBD1F8040282
:100E6000002822DA1F4A15601F480468002CFCD0B5
:100E70001524C1F800420568002DFCD0C1F80442D9
:100E800001680029FCD0136001680029FCD0BFF381
:100E90004F8F0D48F0380168144A01F4E0611143A6
:100EA0000160BFF34F8F00BFFDE712491048086093
:100EB000F0BD0000E00F00F0403501400DF0ADBA8C
:100EC00000C007403C050040FCED00E0105600402B
:100ED0000404001020C50040E40E0040000400405F
:100EE0003C17004004E5014000E401400400FA051D
:100EF0000090D003A800002004220249024800F01C
:100F000089BC00000001002000800040042202494A
:100F1000024800F07FBC00000C010020009000405F
:100F200001480068004700002400002002E008C8D3
:100F3000121F08C1002AFAD170477047002001E053
:100F400001C1121F002AFBD17047000072B601F0E8
:100F500025FC00BF01F06EFA0028FBD111481249B0
:100F6000401AC408012000EB044010A101F07AFBF4
:100F700011480068C00700D000BE022000EB04400A
:100F80000EA101F06FFBBFF34F8F0B48E4380168EF
:100F90000E4A01F4E06111430160BFF34F8F00BFBF
:100FA000FDE700001C440000DC4300004661746162
:100FB0006C206572726F7200F0ED00E0537973740B
:100FC000656D207265736574000000000400FA0509
:100FD0000EB500210091CDE901106A4644F20100EE
:100FE000FFF7B4FF0EBD000030B542680B4C13791B
:100FF000E15C0120FF290ED0FE290DD012684FF4CC
:10100000A86505EB81015158054A52F82320914209
:1010100002D1FF20E054002030BD0000310000204C
:10102000B401002070B50446006816460D4690F8DD
:10103000212001EB450100EB8101022A01D00820AB
:1010400070BD4968B14205D1C16909B360680079D2
:1010500088471DE02046FFF7C7FF08B1112070BD8B
:1010600061680C4AFE2009795054324629462046D0
:1010700002F07CFC2068C06950B16168064A022019
:10108000097902EB410148550221606802F064F8D9
:10109000002070BD31000020C80100202DE9F84F6C
:1010A00007688946054601EB490897F821001E4666
:1010B000924607EB880410B10820BDE8F88F4FF086
:1010C000000B3248C4F804B0A672006800900A22EF
:1010D000296802EB8800085C40B100208DF801000F
:1010E0006946504601F0EAFCB0B901E00120F5E79D
:1010F00047F828A04FF001084FF0A04108FA0AF085
:1011000016B1C1F80C0501E0C1F808050027E01987
:10111000083001F099FD08B10420CEE77F1CFFB232
:10112000022FF4D3207A01F0E1FD607A01F0DEFDB8
:10113000206836B101F076FC0646206801F070FDAB
:1011400005E001F06DFD0646206801F06BFC0746E6
:101150004946686801F0F1FF0146207A324601F005
:10116000A3FD0221686801F0E8FF0146607A3A4673
:1011700001F09AFD84F80B806968054A097902EB51
:10118000410202F809B0002097E700002442000065
:10119000C80100202DE9F0470025DFF868900768B6
:1011A0000446A846626805EB450007EB8006137904
:1011B00009EB430202F80580F17A71B10A22216835
:1011C00002EB8000085CD8B10021306801F0E8FC37
:1011D000306801F0D3FCC6F804806D1C022DE1D309
:1011E0006168094AFF2009795054606801F084FF62
:1011F000606801F0D1FF022087F82100BDE8F08788
:101200000121E2E7C8010020310000202DE9F74F5D
:1012100084B00E00044607D0256895F8210028B157
:10122000082007B0BDE8F08F0B20FAE700F02AFE97
:1012300018B1852801D00420F3E701F035FC20B96E
:1012400001F0FCFB08B10320EBE75048DFF840A1B8
:10125000002100784FF0010BC0F30310032821D0C8
:101260008AF800B0FF2285F82020002091464FF038
:10127000FF3C00BF00EB400705EB8703401CD97221
:1012800083F8089083F80990C0B245F827C0022877
:10129000F0D305F1200001F0D7FC30B1204602F078
:1012A000FFFAC8E78AF80010DCE7002756F8272085
:1012B000501C12D0F0193946037A2046FFF7EEFE93
:1012C0005FEA000804D0204602F0EAFA4046A8E7A8
:1012D000002239462046FFF7A5FE7F1CFFB2022FF1
:1012E000E4D3002009224FF48053316901E049081A
:1012F000401C994201D39042F9D39AF8001009B1E9
:1013000000B90120234AD2E90112CDE901128DF87A
:1013100004006068204A01A900790290606801F029
:101320005FFF070004D0204602F0BAFA384678E79B
:10133000616830690968D1F81015CAB2010F00015F
:10134000FEF7ECFF0646A861606801F0D5FECDF817
:1013500000B05F46042332460221606801F02AFF94
:101360000221606801F0F1FE0698E86160680B49AF
:10137000074A0079521C41F820406168097902F857
:10138000019085F8217000204BE70000E80F00F085
:10139000300000202442000015390000D401002054
:1013A00000F002B800F008B872B602480168491CA3
:1013B000016070472C00002003490868401E086047
:1013C00000D162B6704700002C0000202DE9F041EA
:1013D000064608680C46411C4FF0A0474FF0010537
:1013E00006D005FA00F1C7F80815206800F0F9FEEC
:1013F0006068411C02D0002100F0E1FE3168A06964
:10140000C1F82405607D227D31681043C1F86C0568
:10141000D4E900123068C0F81425C0F80C15207DFE
:10142000012815D1A068411C02D0002100F0C7FEA0
:10143000E068411C05D08540C7F80855E06800F019
:10144000D0FED4E902123068C0F80825C0F81015A3
:10145000BDE8F0812DE9F041064608680C46411CC4
:101460004FF0A0474FF0010506D005FA00F1C7F88C
:101470000815206800F0BFFE6068411C02D0002102
:1014800000F0A6FE3168A069C1F82405607D217DC9
:1014900032680843C2F86C05D4E900123068C0F81D
:1014A0000C15C0F81425207D012815D1A068411C19
:1014B00002D0002100F08CFEE068411C05D0854080
:1014C000C7F80855E06800F096FED4E902123068CB
:1014D000C0F80825C0F81015BDE8F0812DE9F047E7
:1014E0000546861C90460F464FF001090020FFF785
:1014F00057FF1B4C20683860D4E90001401AA168EE
:1015000004F21C47081A0EE00121384600F030FCB6
:1015100000F0B6F90146384600F02AFCD4E9000193
:10152000401AA168081A401C8642EDD8B8F1000F95
:1015300003D0052065F3891002E0062065F39F5073
:10154000A2682168114004EB8101C8602068304422
:1015500020600020FFF726FF4846BDE8F087000026
:101560008003002070B50D4604460A2902D10D21E2
:10157000FFF7F8FFA0682268411CA1601554D4E968
:101580000101814204D32046BDE8704000F0CDBC8B
:1015900070BD0000034803C8814201D1012070479B
:1015A000002070478003002005494FF0FF320828D3
:1015B00041F8202002D3084480F83C207047000006
:1015C00068010020F0B54FF0FF3512B10023082666
:1015D00001E0082309260C4C05E000BF54F82370F5
:1015E0007F1C04D05B1CB342F8D32846F0BD2618FC
:1015F0005DB286F8245044F82310002AF5D1E11892
:1016000081F83C00F1E7000068010020024908442D
:1016100090F92400704700006801002010B50021F7
:10162000024800F0B0FB80F3100010BD9C070020C2
:10163000B5EEC00A10B5F1EE10FA2DED028B03D114
:101640000020BDEC028B10BDDFED150A20EE200A54
:1016500010EE100AFEF7EAFF9FED121B53EC112B60
:10166000FEF742FFFEF7F5FF00EE100A9FED0F8B2D
:1016700010EE100AB5EEC00AF1EE10FA06DBFEF726
:10168000D5FF53EC182BFEF788FE05E0FEF7CEFFE2
:1016900053EC182BFEF722FFFEF7A9FF80B2D0E72C
:1016A0000000C8447B14AE47E17A843F000000008C
:1016B0000000E03F2DE9FC5F0E008346DDE90C47AA
:1016C000C6F1000098469246814600D4084601259E
:1016D00003E000BF90FBFAF06D1C5045FADAA84514
:1016E00000D9454624B1002E01DB780700D5641EE1
:1016F000B80702D5B8F1000F0AD0F80708D13CB1FD
:10170000A54205D220215846641EFFF72BFFF6E7BD
:10171000002E02DA4E462D2102E0780703D52B2158
:101720005846FFF71FFF07F0030002280BD1B8F15E
:10173000000F08D13CB1A54205D230215846641EA5
:10174000FFF710FFF6E7CDE9004743465246314622
:10175000584602F04DFCBDE8FC9F000070B50D46F8
:10176000044600684FF4887101F04EF94FF490710F
:10177000206801F049F94FF49271206801F044F9B2
:101780004FF4A271206801F03FF94FF4AC7120686A
:1017900001F03AF920681149C0F80413206869077C
:1017A00040F30730090E002806DA00F00F0000F1C0
:1017B000E02080F8141D03E000F1E02080F8001420
:1017C0002068012140F3073000F01F0291404009DA
:1017D000800000F1E020C0F8001170BD100342004D
:1017E000024600201268530713D502F003000128B7
:1017F00002D002280CD105E0C2F383100B68801CD4
:10180000184404E00223086803EB92521044086075
:10181000012070472DE9F04117468846064600240E
:1018200017E000BF4FF4A07000EB84054FF4803048
:101830007159A04059B1D6F80413014207D0294686
:10184000304601F0C5F8D8E9002128469047641CCD
:10185000E4B2BC42E6D3BDE8F08100000121814042
:1018600003484068014201D00120704700207047C2
:101870001C00002001218140080300D00120704796
:101880002DE9FF410026234800F06FFA2148001F90
:10189000074600F06AFA204C60680090A56800E0F6
:1018A00000986946284004EB80000C30FFF798FF51
:1018B0000028F5D101AA009901EA050304EB83038E
:1018C000491CDB6842F82030401C00910228F2D30A
:1018D000019800F0030001280BD0022810D10198D4
:1018E000032101EB90500099BDF80A6001EB9000D4
:1018F00005E00198BDF80A60C0F383100844009029
:10190000384600F02FFA08B10098606004B0304605
:10191000BDE8F08198070020800300202DED0A8BA0
:10192000002186B0084600F003FF08B1FFF750FB26
:1019300000F072FD14229D4901A8FEF703FD9C4AA8
:1019400001A99C48FFF762FC08B1FFF741FB9948E9
:10195000FFF720FC9FED98AAF5EE00CAF7EE009A7B
:101960009FED96CAB6EE008AF0EE08BAB3EE09BA59
:10197000DFED93AA4FF4FA714FF00A09B1FBF9F0C9
:10198000C7B290489049401AC108032000EB0144B7
:101990008EA1204600F066FE20468EA100F062FE79
:1019A00000254FF47A76204693A100F05BFEB04606
:1019B000304600F057FA6D1CEDB2052DF3D32046EA
:1019C0008EA100F04FFE924D4FF0000AF2EE048A15
:1019D00085F801A0B0EE680AFFF72AFE06463246F7
:1019E00000217448FFF71EFB1128F8D06878002802
:1019F000FCD0324601216F48FFF714FB08B1FFF716
:101A0000E7FA204683A100F02DFE00BF00F012FD92
:101A10000028FBD10026204677A100F023FE404697
:101A200000F020FA761CF6B2052EF4D320467EA1F3
:101A300000F018FE02F05EF800269FED849A41E067
:101A400002F0B8F895ED020AB0EE481A7CEE401AA2
:101A5000C1EE810A20EE200ADFED7D0A20EE200A89
:101A60003AEE400AC0EE0A0A20EE890AF0EE680A51
:101A700040EE2C0A9FED770A00F00CF9F0EE400AD8
:101A8000B0EE490A00F04DF9F0EE408A85F801A069
:101A9000FFF7CEFD8046424600214648FFF7C2FAD6
:101AA0001128F8D068780028FCD04246012141482E
:101AB000FFF7B8FA08B1FFF78BFA484600F0D2F901
:101AC000761CF6B2BE42BBD328780028FCD101F0C8
:101AD000DDFA02F03FF802F06DF828780028FCD11A
:101AE00001F0D4FAF0EE048A0223F5EEC08AF1EE9A
:101AF00010FA02DDB0EE480A01E0BEEE000AF5EE93
:101B0000C08A20EE090ABDEEC00AF1EE10FA8DED92
:101B1000000A01D250A200E036A220464FA100F0F8
:101B2000A5FD00BF00F086FC0028FBD16BEE8B0A00
:101B300089EEA00A78EEC80A20EE200AC9EEAA0AA9
:101B400020EE200AFEF712FFFEF75AFFB5EEC00A9C
:101B5000F1EE10FAFDEEC00AF8EEE00A02DD70EEDA
:101B6000600A01E070EEC00AB5EEC00A60EE890AB4
:101B7000FDEEE00AF1EE10FACDED000A06D210EE0D
:101B8000100A10F1814F01D233A200E019A2BDEE7C
:101B9000C00A204639A110EE103A00F067FD00BFE0
:101BA00000F048FC0028FBD1FEE70000E8410000FF
:101BB00009390000C84000000000484366666640DE
:101BC00052491D3A1C440000DC430000535441526A
:101BD000540D0A0057616974696E6720666F722040
:101BE000666C6F7720746F20646576656C6F702EFD
:101BF0002E2E0D0A000000002E00000053746172AA
:101C000074696E672050574D2E2E2E0D0A0000006D
:101C10000000002048656174696E672075702E2E83
:101C20002E200D0A00000000466C6F772052617470
:101C300065204D6561737572656D656E74205374B2
:101C400061727465642E2E2E0D0A00000000C842D9
:101C500000007A44000000002D0000004D65617313
:101C60007572656420765F64696666202856293A35
:101C7000257325642E253032640D0A00466C6F777B
:101C80002052617465203D20257325642E25303255
:101C9000640D0A00B4EEE00AF1EE10FA01D2B0EEE3
:101CA000600A70472DE9F047C5881E1DB6FBF5F7A1
:101CB0008946B6FBF5F1044605FB176C40791668BA
:101CC0006843DDF820A0F718001F874200D9C61A24
:101CD000166001E02468491E0029FBD1A5EB0C0722
:101CE0008846B74216D818E004EB0C00001D09EB3B
:101CF0000803BAF1000F3A4602D00146184600E048
:101D00001946FEF71FFB2468F61B4FF0000CB84481
:101D1000B54201D9374600E02F46002EE4D1BDE898
:101D2000F087B4EEE00AF1EE10FA01D3B0EE600AEB
:101D30007047000030B5024651B100F017FD002198
:101D4000074C08E034F821301568AB4202D111602D
:101D5000002030BD491C8142F4D3052030BD000075
:101D600000000000002100F009B8012100F010B8C7
:101D700008B56A46FEF781FA009808BD08B56A46BC
:101D8000FEF761FA08BD08B56A46FEF743FA08BDDA
:101D900008B56A46FEF74AFA009808BD08B56A46D3
:101DA000FEF778FA009808BD70B50446002528466D
:101DB000FFF7F6FA21686268086890420ED9401E63
:101DC00008600178238AE26801FB0325227A2168F2
:101DD000101AC0B20A79824200D208710020FFF7BF
:101DE000E1FA284670BD70B505460C460020FFF7A5
:101DF000D7FAE868298A201AB0FBF1F12A6810683E
:101E0000431C13600170BDE870400020FFF7CABAA0
:101E100010B530B1017A42680368891AC9B21A60F4
:101E200006E00E2010BD03681A68541C1C60117077
:101E3000491EC9B2F7D2006800210171084610BDE1
:101E4000C20800F007030120895C984008407047F1
:101E500010B5C20800F00703885C01249C402043B1
:101E6000885410BD2DE9F041040007D0044E4FF412
:101E70007A47751C3846A847641EFAD1BDE8F08140
:101E8000C04000000448017809B185207047012155
:101E900001700020704700000C00002000B90148CC
:101EA00001F054B8B0400000F0B50546047815487C
:101EB00089B0164640F82420124A0869121DA2F182
:101EC000080742F82400487F385520226846FEF76C
:101ED00039FA04942878385C48B10EB10A4A00E017
:101EE00000226946281D01F037FB09B0F0BD0EB194
:101EF000064A00E00022694605F10C0001F0FEF9F7
:101F0000F3E7000014000020AD3E0000F53C0000A7
:101F10000FB408B50399002904D004AA00926A46B8
:101F200000F00FF801B05DF814FB10B582680446AC
:101F3000002A05D0D4E90403216898470020A06056
:101F400010BD2DE9FC4791460C00804676D014F870
:101F5000011B39B125290ED04046FFF703FB20783D
:101F60000028F4D198F80C00002867D04046BDE85E
:101F7000FC47FFF7DABF0020012221782B291BD074
:101F80002D2902D0302908D102E040F0010001E003
:101F900040F00200641C002AEFD100252A290ED04F
:101FA0002178A1F130020A2A11D205EB850201EB5A
:101FB0004205641C303DF1E740F00400EAE7D9F83F
:101FC00000100B1DC9F800300968641C0D4421780D
:101FD00000232E290BD114F8011FA1F130020A2A87
:101FE00005D203EB830201EB4203303BF3E76C299C
:101FF0000DD068290BD0692921D00BDC252918D0F8
:10200000582931D063290ED0642915D117E014F86E
:10201000011FECE7702969D0732932D075291BD0D4
:10202000782909D120E0D9F80000011DC9F8001075
:1020300001784046FFF796FA641C90E76CE0D9F807
:1020400000100A1DC9F800200968CDE900500A22D5
:102050004046FFF72FFBEFE7D9F800100A1DC9F83B
:10206000002009680A2206E0D9F800100A1DC9F804
:10207000002009681022CDE90050404601F0B8FF69
:10208000DAE7D9F8001000270A1DC9F800200E6809
:10209000C00705D112E04046761C7F1CFFF762FAAC
:1020A00031780029F7D104E0202140466D1EFFF76A
:1020B00059FABD42C0D9002DF6D1BDE74EB1304628
:1020C000FEF764F9074604E0202140466D1EFFF745
:1020D00049FABD4206D9002DF6D103E04046761CF0
:1020E000FFF740FA31780029F8D1A5E7D9F80000C8
:1020F000011DC9F80010056830214046FFF732FA8B
:1021000078214046FFF72EFA08200021CDE9000192
:10211000034610222946B0E7BDE8FC8770B541EAC6
:102120004201DDE904564FF0A04441EA830141EA4F
:10213000052104EB800041EA0641C0F8001770BD9C
:1021400070B541EA4201DDE904564FF0A04441EA8E
:10215000830141EA052104EB800041EA0641C0F811
:10216000001770BD70B541EA4201DDE904564FF039
:10217000A04441EA830141EA052104EB800041EAE1
:102180000641C0F8001770BD1CB5002100910B4638
:1021900001220191FFF7C2FF1CBD1CB50021009177
:1021A0000B4601220191FFF7CBFF1CBD1CB500219E
:1021B00000910B4601220191FFF7D4FF1CBD1CB515
:1021C00000220B46009211460192FFF7A7FF1CBDAB
:1021D0001CB500220B46009211460192FFF7B0FF9A
:1021E0001CBD1CB5002100910B4601220191114636
:1021F000FFF794FF1CBD1CB5002100910B46012286
:1022000001911146FFF79CFF1CBD4FF0A04202EB6D
:102210008000D0F8002722F44032C0F80027D0F820
:10222000002742EA0141C0F80017704718B5084B73
:102230006C4601441B68009306E000BF54F8203050
:10224000D3F81035401C08C28142F7D818BD0000F1
:1022500010420000034908B50844002101600068ED
:10226000009008BD0060004002494058012800D09D
:10227000002070470060004030B5154A014600203C
:10228000D2F8104423460AE0DB681D79854205D167
:10229000401C0A28F6DB4FF0FF3030BD1B68002BD6
:1022A000F2D1431CF9D0CB681871D2F8103443B185
:1022B000DB68CC681B682360D2F81024D2681160F8
:1022C00030BDC2F81014C96800220A6030BD000099
:1022D00080030020F0B595B01C4615460F46084611
:1022E0001A9E00F015FB182109A8FEF744F80E9677
:1022F000CDE909540023082203A9384600F01DFB4C
:1023000005980690BDF81000ADF81C00BDF812004D
:10231000ADF81E0000208DF821000398082600F07B
:102320000300012802D0022818D032E00398334677
:10233000850AC0F3C2008DF8200003980FA9C0F3EE
:102340008314A200384600F0F8FA09A8009006AB02
:1023500022460FA9284600F037FA1AE00398840DA8
:10236000C0F3C2008DF82000082C01D2254600E001
:10237000082533462A460FA9384600F0DEFA2E44D7
:10238000641B09AB06AA29460FA800F079F9002CB6
:10239000EAD1384600F0C2FA15B0F0BD704701200E
:1023A00001F0C6BC084810B50178084A515C19B163
:1023B000001D01F06BF902E00C3001F06BF8BDE894
:1023C0001040002001F0B4BC3C00002010000020B0
:1023D00008B5034A00924023024AFFF77BFF08BD7D
:1023E000D53B0000E80100200A4A012902EBC000A9
:1023F00007D0022907D0032907D0042907D00020DD
:102400007047022070470420704700797047407978
:1024100070470000DC43000010B5FFF7C0FF042147
:102420000348FFF729FF02490120C968487110BD20
:10243000CC4300002DE9F0478CB0FFF7ABF818B1A2
:1024400000200CB0BDE8F0877D4C0020C4F81804D3
:10245000BFF34F8F60680290A5684FF000082840D6
:1024600004EB80000CE000BFD4F8180470B92168B8
:102470000298814201D86160E2E7284004EB8000C5
:102480000C3002A9FFF7ACF90028EDD1002003AA17
:10249000029901EA050304EB8303491CDB6842F857
:1024A0002030401C02910228F2D3039800F0030070
:1024B000022802D001284DD0A7E003985022810DB8
:1024C0008946B2EB905F00D850210E4666F39F50CC
:1024D000039008315B4800F0D2F9070078D000F093
:1024E00017FA4346082203A9384600F02EFA02994B
:1024F00008F1080A2940681A8000001D864222D986
:102500004F4D0C3530B1C2B204EB8101301A904608
:102510000C3104E02946F2B2002590462846C6B2A6
:102520005346384600F011FA0AEB080325B132464B
:102530002946384600F009FA029909F1030001EB37
:10254000900002903BE004EB81015346324638464E
:102550000C31EFE70398C0F38310062800D3062060
:10256000039960F38911C1F38310801C03918100EA
:10257000344800F084F9070047D000F0C9F9434619
:10258000082203A9384600F0E0F908F108080026FF
:102590000FE00298434600EA0501401C04EB81016C
:1025A0000290042238460C3100F0CFF908F10408FB
:1025B000761C0398C0F38310B042EAD847B1D4F830
:1025C0001054D4F8180478B1384600F0A7F931E077
:1025D0001BE0E8684079012804D12A68284639467A
:1025E00012689047E8680568002DF2D1384600F07F
:1025F00095F90020FEF7D4FED4F8180408B9029823
:1026000060600020FEF7CEFE14E0D4F8104405E030
:102610002168204689688847E0680468002CF7D163
:1026200009480A49401AC008022101EB004008A1EC
:1026300000F018F8FEF7AEFF80F0010001E700009F
:1026400080030020244400001C440000DC43000000
:102650004261636B656E647320666C757368656454
:102660000000000000231A4601F0D4BA3EB5069CD3
:102670008DE81C0003236A4601F0CCFA3EBD000041
:102680002DE9F0470E4680461C469246082940D860
:1026900094F80C90002020731946104601F0A8F819
:1026A0000025B54206D218F805201BA12046FFF7E9
:1026B0002FFC03E01AA12046FFF72AFC6D1C082D11
:1026C000EFD318A12046FFF723FC0025B54212D214
:1026D00018F805707E2F08D8FDF730FE0068C05D41
:1026E00010F03E0F01D03A4600E02E220EA1204607
:1026F000FFF70EFC03E00DA12046FFF709FC6D1C5F
:10270000082DE3D301222146504601F053F884F806
:102710000C90BDE8F08700002025303278000000E2
:10272000202020007C000000256300002000000025
:102730000B4810B5FF218160002101604160C0F8A5
:102740001814C0F8141480F82014064800F0E4F8B7
:10275000002803D1044800F000F9002010BD00005B
:1027600080030020244400005C420000024803492A
:10277000401AC0087047000024440000DC430000F9
:1027800013B56846FFF7D6FA08B100201CBD024811
:10279000009950F831001CBDDC43000070B50948B9
:1027A0000125D0F8104480F8205407E0E068457116
:1027B0002168204649688847E0680468002CF5D104
:1027C00070BD0000800300202DE9FF4781460C9D6D
:1027D00000200C462F7B287398461646294618463B
:1027E00001F006F8072E42D2DFE806F004090F16C2
:1027F0001F2A360049462846FFF78AFB37E049463C
:1028000028462268FFF784FB31E0D4E900234946DB
:102810002846FFF77DFB2AE0A0680090D4E900235A
:1028200049462846FFF774FB21E0D4E90201CDE9CF
:102830000001D4E9002349462846FFF769FB16E06A
:1028400004F1080007C88DE80700D4E900234946D1
:102850002846FFF75DFB0AE004F108000FC88DE889
:102860000F00D4E9002349462846FFF751FB002218
:102870002946404600F09EFF2F73BDE8FF872DE9F3
:10288000F041058A80462D1F4819C01CB0FBF5F0A9
:10289000C6B24046FFF788FA041E19D00020207106
:1028A00001206071E58000272546761EC4F800806F
:1028B0000BE04046FFF778FA60B16179491C61711D
:1028C000286005467F1CC0F80080B742F1D320463F
:1028D000BDE8F081204600F002F80020F8E72DE97D
:1028E000F041457901466B1E002201E00968521C47
:1028F0009A42FBD30F680146002605E038460C6873
:10290000FFF771FA2146761CAE42F7D3BDE8F0819D
:102910000121001DFFF72CBAFFF77ABA10B5044663
:102920000121001DFFF73AFA10F0FF0F04D12046F5
:10293000BDE81040FFF7D3BF10BD1CB501920122C6
:10294000009201AAFFF7AEF91CBD1CB5019200224E
:10295000009201AAFFF7A6F91CBD826800219160D0
:1029600082681161826851618268D16082685160B9
:102970008068016070470000024A1060101D01600D
:10298000704700002C760040030103481844C0F84B
:102990001425C0F8101570470070004002494058D7
:1029A000002800D00120704700700040034908B59E
:1029B0000844002202600068009008BD00700040DA
:1029C000024619B140205100884070478020FAE744
:1029D00008B5002242504058009008BD40580028D9
:1029E00000D00120704708B50022425040580090A6
:1029F00008BDD0F80403084000D0012070474058BB
:102A0000002800D00120704708B5002242504058ED
:102A1000009008BD002802D0014980010847704796
:102A20000142000010B5FEF7F1FD602101EB8000CE
:102A30000149C0B2084410BD0060004070B5174D98
:102A400095F8490008B1082070BD0020411E2A18E1
:102A5000401CC0B282F824102028F8D3002420465D
:102A6000FEF7A2FD641CE4B2092CF8D300240C4943
:102A700045F8454FC02081F8000401264020891FF9
:102A8000C1F800014FF4BE70FFF7E4FB0549F00701
:102A9000C1F804032E71204670BD000068010020BB
:102AA00006E000E000600040034890F8490000287C
:102AB00000D0012070470000680100202DE9FC4192
:102AC00004462B480F462044002590F92410491C49
:102AD00001D0082546E0B978002651B30122002133
:102AE0002046FEF76FFD411C21D0830021483A7833
:102AF00018447978D0F81035DFF87CC003EA0C036D
:102B0000C0F81035D0F810354FF4F85C0CEA042CFE
:102B100043EA0C034FF4403C0CEA02424FF4801CA1
:102B20000CEA01510A431343C0F8103504E00425B0
:102B300018E0FE2180F824107A780120A0404FF0A0
:102B4000A041012A11D0C1F80C05012220460096AF
:102B5000002311460196FFF705FB05492046453144
:102B6000FFF776F92846BDE8FC81C1F80805ECE7D7
:102B70006801002000600040FFE0ECFF06490844C7
:102B800090F92400810005480844D0F8101541F060
:102B90000301C0F810157047680100200060004074
:102BA00001B10121064A104490F924008200054831
:102BB0001044D0F8102561F31452C0F81025704766
:102BC000680100200060004010B5044600F0E6FDFA
:102BD00070B12046FEF71AFDC0B2FEF7E5FC2046B4
:102BE000FEF714FD0C4A002102EB8000C0F810151E
:102BF0000A49FF20214481F82400204600F0B6FD58
:102C0000002807D02046FFF7D1FA2046BDE8104043
:102C100000F0B6BD10BD000000600040680100205B
:102C200010B5FEF7F3FC302101EB80000149C0B282
:102C3000084410BD006000400121B1EB507F01D17C
:102C400001207047002070472DE9F0470427144EFB
:102C5000814600244FF001080020FEF7A1FB08FA8E
:102C600004F5354203D02046FEF7F8FD58B10020A8
:102C7000FEF798FB27B104F10104AE43E4B2EBD1B7
:102C80003846BDE8F087074908FA04F000274A688B
:102C90001043486089F800403846FEF783FBEFE7B1
:102CA000FFFF0F001C0000202DE9F04114460D002D
:102CB000074612D08CB10026FEF7DCFD78B138460D
:102CC000FEF7CCFD68B1084800EBC700C0F810550E
:102CD000C0F814453046BDE8F0810E20FBE707261A
:102CE000F8E70826F6E7000000F0014070B504465A
:102CF00001260025A640FEF7BDFD18B12046FEF7CF
:102D0000ADFD18B102480660284670BD0825FBE7F6
:102D100008F5014070B5044601260025A640FEF7DF
:102D2000A9FD18B12046FEF799FD18B102480660CA
:102D3000284670BD0825FBE704F5014070B5044640
:102D40000026FEF797FD78B108480125A5400560EB
:102D50000020FEF725FB06484168A943416000209A
:102D6000FEF720FB304670BD0726FBE708F5014063
:102D70001C00002070B50D4600F086FD04000FD049
:102D80000020FEF70DFB207920B10020FEF70AFBA2
:102D9000112070BD0120256020710020FEF702FB8C
:102DA000002070BD10B500F06FFD002802D000219A
:102DB0000160017110BD00002DE9F041254C06466F
:102DC00012200D46C4F808032348017C022918D0BC
:102DD000027C01464FF4807891F82E10012A12D01F
:102DE0000222C4F8042301270774466005810022EB
:102DF000C26021B3458390F82D103046FFF7BCFD2B
:102E000025E0122002E0C2682AB10220C4F80403BF
:102E10001120BDE8F081C660058361B94746384698
:102E2000FFF7BCFD0028FAD03846FFF7BFFD294662
:102E30003046FFF7A1FD0220C4F8040307E029464D
:102E40003046FFF799FD4046FFF7B0FD27600020B0
:102E5000DFE7000000700040D000002070B50C4695
:102E600026490A7C0AB1112070BD2279244D0AB18D
:102E7000012A01D100222A6001EB4002137F1BB915
:102E800011F82D3F5B1C0B70E1791177217A517796
:102E900021786278302301F0030103EA0212114322
:102EA000A2784FF4E06303EA02221143E2784FF480
:102EB000805303EA0232114322794FF4E02303EAFC
:102EC0000242114362794FF4801303EA0252114324
:102ED000A2791B0103EA02620A4B114303EB0012C1
:102EE000C2F81815227AE179FFF74EFD207908B172
:102EF000012801D101202860002070BDD0000020F1
:102F0000007500400070004070B505460E48017C19
:102F100009B1112070BD00EB45010A7F1AB110F80C
:102F20002D2F521E027000240C774C77224621462A
:102F30002846FFF729FD40F2FF72D143284600F0F2
:102F40004FF8204670BD0000D00000202DE9F04170
:102F50001F4C054694F82C0010B10820BDE8F08104
:102F600044F8101B1B4928780860091D6878086020
:102F7000E878A077012727770020207060776060CD
:102F8000154EE0776FF00040C6F808034FF48270EA
:102F9000FFF70CFDB015FFF709FD4FF48A70FFF73E
:102FA00005FDA8780D49400181F800048020C91F63
:102FB000C1F800010220C6F80403A07F10B101206F
:102FC000C6F804030348F03807600020C6E7000095
:102FD000D0000020F07500400070004007E000E0E5
:102FE0002DE9F04117460C460546C1EA07401A4E46
:102FF00006EB0511C1F81C0500212846FFF7E0FC8F
:103000002346012101EB4502144CC907D1406269F6
:1030100013F5006F1BD00A436261C6F80403012157
:103020002846FFF7CDFC6A004FF00041D140A7F5DC
:10303000E0636269FF3B05D00A436261C6F804039E
:10304000BDE8F0818A436261C6F80803F8E78A4365
:103050006261C6F80803E2E700700040D00000207B
:10306000084900200A7C012A01D00820704791F805
:103070002E30054A01210BB111607047024A121D22
:10308000FAE70000D00000200070004070B517493A
:103090006FF00040C1F8080380214FF0E0220120CA
:1030A0000025C2F8801111490831086042F21074FD
:1030B0004FF48A763046FFF771FC20B90020FFF705
:1030C000A9FC641EF6D10A4805600A4E3574002436
:1030D00006EB4400007F10B1E0B2FFF715FF641C5F
:1030E000082CF5D386F82C5070BD0000007000400D
:1030F00000750040D000002000680121C1607047C9
:103100002DE9F04106460D464FF48034006817461D
:10311000AC404BB14FF4A07101EB8501FFF758FCB7
:103120003068C0F8044301E0C0F80843306800EBA1
:103130008500C0F84075BDE8F08102684FF4A070CA
:1031400000EB810080B21044704702684FF4803079
:103150008840C2F80803704770B505460C464FF426
:10316000A07000EB840081B22868FFF731FC296869
:103170004FF48030A040C1F8040370BD0268012103
:1031800011610079034A00EB400002EB80000172FC
:103190007047000000010020016801220A600079E8
:1031A000034A00EB400002EB8000022101727047ED
:1031B00000010020F0B40468049E40F20115D4F828
:1031C00000728D40AF43C4F800720468D4F8005216
:1031D0001D43C4F800523346F0BCFFF791BF000016
:1031E0002DE9F04104460E4600792B4900EB4000E2
:1031F00001EB8007387A10B10820BDE8F0813A6011
:10320000706800254FF4A078786006E008EB85012F
:103210002068FFF7DDFB6D1CEDB26079A842F5D8A0
:103220002068F17840F3073000284FEA411106DAB0
:1032300000F00F0000F1E02080F8141D03E000F121
:10324000E02080F800142068012140F3073000F0EE
:103250001F0201FA02F24009800000F1E020C0F8EC
:10326000002120687278D0F8043562F30103C0F8B9
:1032700004352068B278D0F8083562F30103C0F84D
:10328000083520683278D0F8103562F30303C0F8AF
:10329000103539720020B0E70001002010B5034658
:1032A000006840F3073101F01F02012090404909F6
:1032B000890001F1E021C1F8800119684FF0FF3069
:1032C000D1F800220024C1F800421968C1F80803AF
:1032D0001846FFF753FF1879034900EB400001EB54
:1032E0008000047210BD0000000100200149024866
:1032F00000F046BD18010020002000402DE9F041FB
:103300000546007916460F4600EB40012C4A01EBBA
:10331000C00102EB810494F82A1011B10820BDE825
:10332000F081284951F820102868FFF723FD08B1E3
:103330001120F4E739462846FEF748F866603869F8
:10334000206030004FF001062DD03F7F4FF48E718A
:103350002868FFF748FB4FF4A2712868FFF743FB8A
:1033600028681949C0F8041328684FEA471140F348
:103370000730002806DA00F00F0000F1E02080F8A6
:10338000141D03E000F1E02080F80014286840F3E9
:10339000073000F01F0106FA01F14009800000F13A
:1033A000E020C0F8001128680421C0F800150020B2
:1033B000A061E06184F8290044F8140FA675AEE717
:1033C0001801002008420000800002002DE9F05F93
:1033D000054600790B4600EB400101EBC000244993
:1033E00001EB8004284600F045F810B11120BDE83B
:1033F000F09F62614FF00009C4F82090A36084F848
:1034000028904FF48E784E4641462868FFF7EBFA35
:1034100028684FF0010AC0F808A02146286800F08B
:103420003FFC606808BBD5F800B067690FE000BFDB
:1034300094F8280008B10F2615E041465846FFF7DA
:10344000CDFA0028F4D02146584600F029FC206A25
:10345000B842F2D3574641462868FFF7BFFA002822
:10346000F9D02868C760C4F814903046BFE7000060
:1034700018010020007900EB400101EBC000044975
:1034800001EB80004069002800D001207047000057
:10349000180100202DE9F047044600794FF000099B
:1034A00000EB400101EBC000254901EB80072068DB
:1034B000C0F80095786880B120682249C0F80813E8
:1034C0002068012140F3073000F01F0291404009BD
:1034D000800000F1E020C0F880112068D0F80C25B1
:1034E000D0F81485D0F80865D0F810554FF0FF31AA
:1034F000C0F81415C0F80C152068C0F80815C0F8FD
:103500001015501C02D01046FEF73EFEB8F1FF3FEA
:1035100002D04046FEF738FE681C02D02846FEF76F
:1035200033FE701C02D03046FEF72EFE2068FFF7F7
:1035300039FC87F82A90C7F80490BDE8F0870000AE
:1035400018010020840202000149024800F0C6BCB4
:1035500044010020002000402DE9F04105461646B8
:1035600000790F46154A00EBC00102EB810494F884
:10357000201011B10820BDE8F081114951F8201048
:103580002868FFF7F7FB08B11120F4E73946284611
:10359000FDF760FF6660386920601EB1397F2846FC
:1035A000FEF7DCF828680821C0F800150020A061AB
:1035B000E0616061012184F82010DCE74401002013
:1035C0000C4200002DE9F04704460E4600792749D9
:1035D00000EBC00001EB800517463046FFF72CFBDF
:1035E00030B1204600F044F820B11120BDE8F0874A
:1035F0001020FBE76F61AE604FF490774FF000084A
:1036000039462068FFF700FA4FF4AC76314620685F
:10361000FFF7FAF92068AA686969C0F84425C0F87C
:10362000481520684FF00109C0F808906868D0B9C3
:10363000BA4651462068FFF7E2F90746314620684E
:10364000FFF7DDF90743F4D010B14FF00F0808E0A1
:103650002068C0F80C9031462068FFF7D0F90028A8
:10366000F9D0002068614046C0E700004401002016
:103670000079054900EBC00001EB8000406900289B
:1036800000D0012070470000440100202DE9F047E0
:1036900004460079334900EBC00001EB80070125A7
:1036A000786880B120683049C0F80813206840F37A
:1036B000073000F01F0105FA01F14009800000F118
:1036C000E020C0F880112068D0F8001221F020011D
:1036D000C0F80012206845604FF4AC76314620688F
:1036E000FFF792F92068C56031462068FFF787F937
:1036F0000028F9D020684FF00009C0F80095206834
:10370000D0F80C25D0F81485D0F80865D0F81055FD
:103710004FF0FF31C0F80C15C0F814152068C0F840
:103720000815C0F81015501C02D01046FEF735FDE4
:10373000B8F1FF3F02D04046FEF72FFD681C02D0D3
:103740002846FEF72AFD701C02D03046FEF725FD04
:103750002068FFF727FB87F82090C7F80490BDE8A2
:10376000F0870000440100201003420010B5034917
:10377000FEF766FB002800D0012010BDAD0100203F
:1037800010B50549C20800F007008B5C0124844095
:10379000A3438B5410BD0000AD0100200449084430
:1037A00090F92400082801D20120704700207047BA
:1037B0006801002010B50C46017A052908D0407A2E
:1037C00038B1084808A102682046FEF7A1FB00E0D6
:1037D0001AB106A12046FEF79BFB2046BDE810402B
:1037E000FEF7A3BB84000020257300000D0A000033
:1037F00038B5C3880D46044633B114A0009015A215
:1038000016A12846FEF784FB217A05291CD0607A90
:1038100048B1A088FEF7E8FD164951F8202016A10E
:103820002846FEF775FBA0880021FEF7A9FF034696
:103830001049207A143951F8202001B02846BDE8FB
:1038400030400EA1FEF764BB38BD00001B5B306D3D
:10385000000000001B5B313B33316D0025734C6F62
:1038600067732064726F7070656420282564292551
:10387000730D0A0084000020257300003C25733E70
:103880002025733A200000000349884201D10348F3
:1038900070470020704700000020004024000020F6
:1038A0002DE9F05F0668834696F82000FFF746FA98
:1038B000002505EB450800244FF0FF0A06EB8807BA
:1038C00007EB040999F80800FF2803D0FFF736FA40
:1038D00089F808A0641CE4B2022CF1D356F8280041
:1038E000411C05D0FFF770F94FF0FF3146F8281062
:1038F00000206D1CEDB2F872022DDAD3DBF8040063
:10390000BDE8F05FFFF7CABC01490120487070476D
:10391000000000202DE9F04113480D460127002446
:1039200000F10C0800EB4506305D28B1305D401E0B
:103930003055305D70B10027641CE4B2022CF3D323
:10394000002F0ED058F8250002214068BDE8F04154
:10395000FFF7FBBB58F825000068C1692846884777
:10396000EAE7BDE8F0810000C80100202DE9F0473A
:1039700088460546076801EB480007EB80041646B9
:1039800097F82000FFF7B2F9DFF8B0904FF0FF0A88
:103990007EB1B869B04211D886B2207AFFF7A6F995
:1039A00094F80900FFF7B6F969680A7909F802A0E6
:1039B00040E0607AFFF79AF9207AF3E76268824282
:1039C00028D03AB3B24225D9002303216868FFF713
:1039D00097FBA07A0028206802D0FFF723F801E0C7
:1039E000FFF71EF9824603216868FFF7A6FB014630
:1039F00017F8200F5246FFF757F93878FFF78AF982
:103A000069680A7909F8028068680D49007941F807
:103A1000206003E069680A7909F802A000233246B1
:103A200041466868FFF76CFB207AFFF773F9607A0C
:103A3000FFF770F96660BDE8F087000031000020F4
:103A4000B401002070B5054688690C4600284FF483
:103A5000847128460AD0FEF7C6FFD5F81805626AB9
:103A6000E1688854606A401C606270BDFEF7BBFF6D
:103A7000D5F8180570BD1FB501238DF80030CDE9CC
:103A80000121D0E90012684690471FBD1FB50123F0
:103A90008DF80030CDE90121D0E900126846904749
:103AA0001FBD000010B50446007800281AD101217E
:103AB0006068FFF781F908B1FDF78AFA60680121B3
:103AC000B0F9000090FBF1F0FCF780FD9FED061BC4
:103AD00053EC112BFCF708FDFCF7BBFD0449886093
:103AE0000020087010BD00005455682096CD6C3F32
:103AF000000000200EB5144A07CA8DE80700002018
:103B00008DF8020001208DF8060010490020FEF714
:103B1000C5F908B1FDF75CFA69460020FFF79EF988
:103B200008B1FDF755FA01210948FFF745F908B139
:103B3000FDF74EFA06480121801CFFF73DF90028E9
:103B400001D0FDF745FA0EBDD0400000A53A0000B7
:103B5000020000200EB5144A07CA8DE807000020B5
:103B60008DF8020001208DF8060010490020FEF7B4
:103B700095F908B1FDF72CFA69460020FFF76EF9B8
:103B800008B1FDF725FA01210948FFF715F908B139
:103B9000FDF71EFA06480121801CFFF70DF90028E9
:103BA00001D0FDF715FA0EBDDC400000A53A00007B
:103BB00002000020064910B501200870FFF750FAF6
:103BC000002803D0BDE81040FDF702BA10BD000088
:103BD0000000002070B50D4C0020D2B22070201DD6
:103BE0000B4D0378EB5C1BB1001DFFF7EBFC02E013
:103BF0000C30FFF7EBFB08B1FDF7EAF9607800281D
:103C000002D021780029FAD070BD000038000020D1
:103C1000100000202DE9F84F204D924689460646B7
:103C20009846012269461846AF68FDF757FC58B31D
:103C3000009800210446801C09E000BF00EA070349
:103C40005AF8212005EB8303401C491CDA604145EA
:103C5000F4D34FEA164AFDF7E1FC4AEA0041601C42
:103C6000384005EB80003C4005EB8402C160D06821
:103C700066F3C50068F3891069F39F2020F0030004
:103C8000401C20F00400D06095F8200402E000BF42
:103C9000FEF7D0FB0028FBD1BDE8F88F80030020A1
:103CA00070B50C4605464FF48E71FEF79CFE216AF6
:103CB000A068415C206A401C2062C5F81C1570BDDC
:103CC0001FB500228DF800200291816801914261A8
:103CD000D0E90012684690471FBD1FB500228DF83D
:103CE00000200291816801914261D0E9001268468A
:103CF00090471FBD1FB50A4601788DF80010416836
:103D00000191017A8DF80810C0680390044850F8BA
:103D10002210001F50F82220684690471FBD000067
:103D20001800002001490120087070473800002069
:103D300010B588B0044620220E496846FCF702FB05
:103D400006200090C01F0190029003904FF0EB708E
:103D500006900CB1084A00E0002269460748FEF7C9
:103D6000A3F808B1FDF734F90448001F447008B007
:103D700010BD00003C420000253D00003C0000203A
:103D80002DE9FF470C4605464FF40071FEF731FE62
:103D900001274FF40178002618B34FF49279494671
:103DA0002846FEF71BFEE0B149462846FEF71BFEFB
:103DB000C5F8088394F8290000B96F6002208DF8D7
:103DC0000000D5F88004C5F880040390A069029033
:103DD000E0680190A661E661D4E900126846904768
:103DE00028E004212846FEF704FE18B34FF484713E
:103DF0002846FEF7F3FDE8B121462846FFF722FEEC
:103E0000616AA069884215D1E06938B1E268616AE7
:103E1000A0612069E6616662E06008E094F829002C
:103E200000B96F60C5F80883A661E268616A204640
:103E3000FFF721FE4FF48E7841462846FEF7CEFD6F
:103E400080B16069216A814202D294F8280028B3C7
:103E500041462846FEF7C7FD606918B161692046F2
:103E6000FFF72EFF4FF4A27841462846FEF7B6FD35
:103E7000002818D041462846FEF7B5FD94F82900E1
:103E800000B12F60A06900280DD0A661E268616AC8
:103E900004B02046BDE8F047FFF7EDBD21462846B7
:103EA000FFF7FEFEDEE7BDE8FF8700001FB50A460C
:103EB00001788DF8001041680191017A8DF80810A1
:103EC000C0680390044850F82210001F50F82220C8
:103ED000684690471FBD0000180000202DE9FF41F3
:103EE0000C464FF4927705463946FEF788FD0026CA
:103EF000B8B139462846FEF787FD02208DF800004C
:103F0000D5F88004C5F880040390D5F83C050290EC
:103F1000E0680190A661E661D4E900126846904726
:103F200023E04FF4887739462846FEF768FDE0B174
:103F300039462846FEF768FDD5F83C15A069884249
:103F400013D1E06960B1E268D5F8000220F02000EA
:103F5000C5F80002E069A0612069E661E06001E067
:103F6000A661E2682046FFF791FD4FF4A27739463B
:103F70002846FEF744FD68B139462846FEF744FD61
:103F8000A06938B1A661E661D5F83C152046E26823
:103F9000FFF77CFD4FF4907631462846FEF72FFD63
:103FA00060B131462846FEF72FFD0120E8606069C8
:103FB00020B1D5F84C152046FFF78FFE4FF4AC76B4
:103FC00031462846FEF71BFD00280ED03146284614
:103FD000FEF71AFD6069002807D0D5F84C1504B02B
:103FE0002046BDE8F041FFF778BEBDE8FF81000044
:103FF0002DE9F05F8346DDE90A4A994690460D4671
:104000000846012703E000BFB0FBF8F07F1C4045E5
:10401000FAD2B94500D94F465FEACA7012D18CB1C5
:104020005FEA8A7002D5B9F1000F01D0202607E0BF
:10403000302605E031465846641EFDF793FA0CB170
:10404000A742F7D35FF00106B9F1010F02D9A9F138
:10405000010903E0B5FBF6F0404502D306FB08F684
:10406000F2E7DFF83C9000BFB5FBF6F000FB165519
:1040700019F800105846FDF775FAB6FBF8F6002E51
:10408000F2D15FEACA7009D0002C07D0A74205D24E
:1040900020215846641EFDF765FAF5E7BDE8F09F5C
:1040A00014420000009000400104000000000000E5
:1040B00001030600000000000000000000000000F6
:1040C0000338FDD870470000AC000020A440000079
:1040D00000000000020000010000000000000000DD
:1040E00002000003000000000000000004000000C7
:1040F000080000000C000000100000001400000088
:10410000180000001C000000200000002400000037
:10411000280000002C0000003000000034000000E7
:10412000380000003C000000000000005305833F01
:104130003D0A03405F984440E4148340DFE0A3401D
:104140004FAFC440637FE5405F290341469413416C
:10415000D20024412F6E3441C6DC4441014D55410B
:104160000EBE6541BE307641000000000100000037
:104170000200000003000000040000000500000031
:104180000600000007000000080000000900000011
:104190000A0000000B0000000C0000000D000000F1
:1041A0000E0000000F000000F0A7863E3D0A873F8A
:1041B000C520F03F52B82E4077BE67405EBA9140AE
:1041C0001B2FB140FA7ED2404A0CF640F6280E4131
:1041D000560E2341BA493A4148E15441C3F574416E
:1041E000F85390410000AC4119000000FFFFFFFFB1
:1041F0000000000001000000C800000000000000F6
:104200000338FDD870470000ED320000493500004A
:1042100000000050303132333435363738394142BE
:104220004344454603000100000000070000000071
:10423000D1230000A52300009D230000FFFFFFFF06
:10424000FFFFFFFFFFFFFFFFFFFFFFFF000000007A
:10425000000000000000D60106010000E802002076
:104260007F00000068030020004040404040404084
:104270004040414141414140404040404040404039
:1042800040404040404040404005020202020202DD
:10429000020202020202020202202020202020202C
:1042A0002020200202020202020290909090909040
:1042B00010101010101010101010101010101010FE
:1042C0001010101002020202020288888888888872
:1042D000080808080808080808080808080808085E
:1042E00008080808020202024000000069420000BB
:1042F0007761726E696E67006465627567000000C1
:104300001B5B313B33306D001B5B306D00000000E8
:104310001B5B313B33316D001B5B313B33326D0036
:104320001B5B313B33336D001B5B313B33346D0022
:104330001B5B313B33356D001B5B313B33366D000E
:104340001B5B313B33376D00696E666F0000000008
:104350006572726F72000000505049005052530055
:10436000534141444300000054494D455200000070
:104370005541525400000000554152544500000080
:104380004750494F544500007077725F6D676D74F8
:1043900000000000756172745F6C6F675F6261633B
:1043A0006B656E64000000006170700038440000AE
:1043B00000000020AC0000002C0F0000E4440000CE
:1043C000AC000020FC2600003C0F00003042000042
:1043D00000000000944300005000002058430000FB
:1043E000000000005C43000000000000604300008B
:1043F000000000006843000000000000704300005F
:10440000000000007843000000000000804300002E
:10441000000000008843000000000000A8430000E6
:10442000000003036000002058000020600000200E
:10443000280200201800000000000000000000001A
:10444000000000000000000000000000000000006C
:10445000000000000000000000000000000000005C
:10446000000000000000000000000000000000004C
:1044700000000000000000000020004000000000DC
:10448000002000400000000000000000FF000000CD
:10449000000000000000000000000000000000001C
:1044A0000000000000000000000000005043000079
:1044B000F042000048430000F842000008430000BA
:1044C0000043000010430000184300002043000098
:1044D0002843000030430000384300004043000000
:0444E0000090D00375
:0400000500000201F4
:00000001FF
